:1006E400011000011100011200011700011800019E
:1006F4001900011300011400011500011600031A6A
:10070400000000031D0000000609000000000000B6
:10071400010800010F00012801012901062200003F
:0407240000000000D1
:070752001207797F647E00AD
:10075900E4FDFCD3ED9FEC9E5015E4FAFB0BBB00C6
:0F076900010AEB64794A70F50DBD00010C80E4C4
:01077800225E
:0F07BD00C39520FF1207CCAE07C3E5289520FF98
:1007CC00EF5480FD3395E04D6005EFF404FF2222D9
:10072900C290C291C292C293C294C295C2B0C2B1E0
:10073900C2B2C2B3C2B4C2B5C296C2B6C2B7C29738
:09074900C2A0D2A1C2A2D2A322D7
:10044D00208007E510700375100130800DE51064F4
:10045D00017007751A01D290F510208107E5117012
:10046D000375110130810DE51164017007751B01D4
:10047D00D291F511208207E51270037512013082B9
:10048D000DE51264017007751C01D292F5122083DF
:10049D0007E517700375170130830DE517640170BB
:1004AD0007751D01D293F517208407E518700375A4
:1004BD00180130840DE51864017007751E01D29482
:1004CD00F518208507E519700375190130850DE5BF
:1004DD001964017007751F01D295F51920A707E55D
:1004ED0013700375130130A70DE5136401700775C3
:1004FD000A01D2B0F51320A607E514700375140197
:10050D0030A60DE51464017007750B01D2B1F51419
:10051D0020A507E515700375150130A50DE51564CA
:10052D00017007750C01D2B2F51520A407E5167000
:10053D000375160130A40DE51664017007750D01E4
:05054D00D2B3F51622F7
:1005DE00D2967F2C7E0112075974192528F8E4F65D
:1005EE00AF281EEF64017002C290EF64024E7002DB
:1005FE00C291EF64034E7002C292E5081460291492
:10060E00603A2402704AEF64014E7004F50AC2B0DB
:10061E00EF64024E7008F50BF50CC2B1C2B2EF6476
:10062E00034E7004F50DC2B3EF64014E7004F50A6B
:10063E00C2B0EF64024E7004F50CC2B2EF64024E0B
:10064E007004F50BC2B1EF64034E7004F50DC2B326
:03065E00C296221F
:10066100D2977F2C7E01120759741C2529F8E4F6D4
:10067100AF291EEF64017002C293EF64024E700253
:10068100C294EF64034E7002C295E50F1460291401
:10069100603A2402704AEF64014E7004F50AC2B058
:1006A100EF64024E7008F50BF50CC2B1C2B2EF64F3
:1006B100034E7004F50DC2B3EF64014E7004F50AE8
:1006C100C2B0EF64024E7004F50CC2B2EF64024E88
:1006D1007004F50BC2B1EF64034E7004F50DC2B3A3
:0306E100C297229B
:10077900AF287E00EF64017004C2A0D2A1EF640229
:100789004E7004D2A0C2A1EF64034E7004D2A0D26D
:02079900A1229B
:10079B00AF297E00EF64017004C2A2D2A3EF640202
:1007AB004E7004D2A2C2A3EF64034E7004D2A2D245
:0207BB00A32277
:10023A00E50814700302036D1470030203D3240249
:10024A00600302044CE4F52274192528F8E66401D7
:10025A006018E52825E02407F8E66401600CE52823
:10026A0025E02408F8E6640170031205DEE5280497
:10027A00F520D3E520940374809480501A741925CC
:10028A0020F8E66401700CE52270087508017522F1
:10029A00018004052080DBE52814F520C3E52094BD
:1002AA000174809480401A74192520F8E66401705C
:1002BA000CE5227008750802752201800415208059
:1002CA00DBE52804F520D3E520940374809480505C
:1002DA0040E52025E02408F8E66401600CE52025C5
:1002EA00E02407F8E664017024E5227020AF0FEFDE
:1002FA007013EF7018E5291207BDD3EE6480F8EF8A
:10030A0064809850087508017522018004052080D0
:10031A00B5E52814F520C3E5209401748094805033
:10032A000302044CE52025E02408F8E66401600C89
:10033A00E52025E02407F8E664017023E522701F12
:10034A00AF0FEF7013EF7017E5281207BDD3EE64F5
:10035A0080F8EF648098500775080275220122150B
:10036A002080B3C296D2B41207550528120752E468
:10037A00F52374192528F8E66401600CE52825E0C0
:10038A002408F8E6640170031205DEE52804F52066
:10039A00D3E520940374809480502274192520F8A0
:1003AA00E66401600CE52025E02408F8E6640170A3
:1003BA00087508017523018004052080D3E52360B0
:1003CA000302044CF508C2B422C296D2B5120755EC
:1003DA001528120752E4F52474192528F8E6640151
:1003EA006023E52824FFFFEE34FFFEEF25E0FFEE51
:1003FA0033FEEF64014E70047F0180027F007409AE
:10040A002FF8E660031205DEE52814F520C3E5207F
:10041A00940174809480402274192520F8E66401BE
:10042A00600CE52025E02407F8E6640170087508E9
:10043A00027524018004152080D3E5247004F50890
:03044A00C2B52216
:10000300E50F1470030201541470030201BD2402AE
:100013006003020239E4F525741C2529F8E664011E
:100023006018E52925E02407F8E66401600CE5295A
:1000330025E02408F8E664017003120661E529044B
:10004300F521D3E521940374809480501A741C2500
:1000530021F8E66401700CE5257008750F0175251C
:10006300018004052180DBE52914F521C3E52194F2
:100073000174809480401A741C2521F8E664017091
:100083000CE5257008750F02752501800415218084
:10009300DBE52904F521D3E5219403748094805092
:1000A3004FE52125E02408F8E66401600CE52125ED
:1000B300E02407F8E664017033E525702FAF08EFFD
:1000C3007022EF7027C3E5289521FF1207CCAE07F6
:1000D300C3E5299521FF1207CCD3EE6480F8EF64C2
:1000E30080985008750F017525018004052180A6AD
:1000F300E52914F521C3E52194017480948050030C
:10010300020239E52125E02408F8E66401600CE5E4
:100113002125E02407F8E664017032E525702EAF4F
:1001230008EF7022EF7026C3E5289521FF1207CC54
:10013300AE07C3E5299521FF1207CCD3EE6480F8FF
:10014300EF6480985007750F0275250122152180F1
:10015300A4C297D2B6120755052912079B12075559
:10016300E4F526741C2529F8E66401600CE52925CD
:10017300E02408F8E664017003120661E52904F53A
:1001830021D3E5219403748094805022741C25218B
:10019300F8E66401600CE52125E02408F8E6640133
:1001A3007008750F017526018004052180D3E526AB
:1001B3006003020239F50FC2B622C297D2B7120703
:1001C30055152912079B120755E4F527741C252999
:1001D300F8E664016023E52924FFFFEE34FFFEEF18
:1001E30025E0FFEE33FEEF64014E70047F018002D1
:1001F3007F0074092FF8E66003120661E52914F500
:1002030021C3E5219401748094804022741C25212C
:10021300F8E66401600CE52125E02407F8E66401B3
:100223007008750F027527018004152180D3E52717
:070233007004F50FC2B722B1
:1007DC0012072912044D12000312023A7F2C7E01DB
:0507EC0012075980EE28
:03000000020552A4
:0C055200787FE4F6D8FD75812902059938
:10055E000207DCE493A3F8E493A34003F68001F2D0
:10056E0008DFF48029E493A3F85407240CC8C3339E
:10057E00C4540F4420C8834004F456800146F6DF6D
:10058E00E4800B01020408102040809006E4E47E13
:10059E00019360BCA3FF543F30E509541FFEE49362
:1005AE00A360010ECF54C025E060A840B8E493A329
:1005BE00FAE493A3F8E493A3C8C582C8CAC583CA54
:1005CE00F0A3C8C582C8CAC583CADFE9DEE780BE0C
:0107280000D0
:00000001FF
